:020000040800F2
:10000000C0E70120D10100080B6C00083331000863
:10001000076C00089B060008F18C00080000000037
:1000200000000000000000000000000079850008CA
:100030009F060008000000009302000835860008B3
:100040000B0200080B0200080B0200080B0200085C
:100050000B0200080B0200080B0200080B0200084C
:100060000B0200080B0200080B0200080B0200083C
:100070000B0200080B0200080B0200080B0200082C
:100080000B0200080B0200080B0200080B0200081C
:100090000B0200080B0200080B0200080B0200080C
:1000A0000B0200080B0200080B0200080B020008FC
:1000B0000B020008B9860008C98600080B02000878
:1000C0000B0200080B0200080B0200080B020008DC
:1000D0000B020008098C00080B0200080B02000844
:1000E0000B0200080B0200080B0200080B020008BC
:1000F0000B0200080B0200080B0200080B020008AC
:100100000B0200080B0200080B0200080B0200089B
:100110000B0200080B0200080B0200080B0200088B
:100120000B0200080B0200080B0200080B0200087B
:100130000B020008290700080B0200080B02000848
:100140000B0200080B0200080B0200080B0200085B
:100150000B0200080B0200080B0200080B0200084B
:100160000B0200080B0200080B0200080B0200083B
:100170000B0200080B0200080B0200080000000040
:100180000B0200080B0200080B0200080B0200081B
:100190000B0200080B0200080B0200080B0200080B
:1001A0000B0200080B0200080B020008DFF80CD05D
:1001B00000F02EFA004800475DC00008C0E70120AB
:1001C00030BF72B6704762B6704780F308887047D8
:1001D0000E488047DFF83800016841F47001016083
:1001E000BFF34F8FDFF82C00016821F04041016020
:1001F000BFF36F8F08480047FEE7FEE7FEE7FEE724
:10020000FEE7FEE7FEE7FEE7FEE7FEE755860008AD
:1002100088ED00E034EF00E0AD010008EFF3098164
:1002200041B1F1EE101A40F8041D20ED200A2949D1
:100230000A6810607047B0EC200A02C8E1EE101A9C
:1002400025490A6810607047EFF3108072B6704756
:1002500080F31088704721484FF0FF0101700020A3
:1002600080F309881E48016881F308881D48012130
:1002700001701D484FF08051016062B6FEE71A48D8
:100280004FF080510160704717484FF08051016076
:10029000704772B6EFF3098028B1203880E8F00F7C
:1002A0000C490968086000B5104880475DF804EB08
:1002B0000F4810490A780270064807490A68026028
:1002C000106890E8F00F203080F309884EF0F40EAB
:1002D00062B67047B8020020C002002022ED00E0A4
:1002E000D8020020B202002004ED00E0D979000815
:1002F000A7020020A80200202DE9F05F054600209B
:1003000092469B4688460646814640241BE0284686
:1003100041464746224600F00DF953465A46C01A58
:10032000914110D311461846224600F0F4F82D1AD8
:1003300067EB01084F4622460120002100F0EBF850
:1003400017EB00094E41201EA4F10104DFDC4846F2
:1003500031462A464346BDE8F09F40EA01039B0729
:1003600003D009E008C9121F08C0042AFAD203E02A
:1003700011F8013B00F8013B521EF9D27047D2B28E
:1003800001E000F8012B491EFBD270470022F6E77E
:1003900010B513460A4604461946FFF7F0FF2046FB
:1003A00010BD421C10F8011B0029FBD1801A7047B8
:1003B00010B5002200E0521C835C8C5CA34201D18A
:1003C000002BF8D1D8B2E1B2401A10BD30B50446C6
:1003D0000020034600E05B1C934203D2E05CCD5C4E
:1003E000401BF8D030BD2DE9FE4F81EA030404F034
:1003F000004421F0004100944FF0000B23F0004333
:1004000050EA01045ED052EA03045BD0C3F30A54FD
:10041000C1F30A552C44A4F2F3340194A0FB025416
:10042000C1F3130141F48011C3F3130343F48013A8
:1004300001FB024400FB034E840A970A44EA8154FC
:1004400047EA8357A4FB076802958D0A05FB0785D9
:100450004FEA932C04FB0C542705029D4FEA0658E3
:1004600047EA1637B5EB08056EEB070C870E920EC0
:1004700047EA811742EA8312A7FB0201B6EB0B01A0
:1004800064EB00042B0D43EA0C335E1844EB1C5064
:10049000DA465146E7FB0201C5F313044FEA0B337A
:1004A00043EA14534FEA0432019C43EA0603A4F1E1
:1004B0000C040294009CCDE900B400F05AF803B09B
:1004C000BDE8F08F00200146F9E70EB540F2334158
:1004D00002910021CDE900110A460B4600F049F8CF
:1004E00003B000BDC1F30A5210B5C1F3130140F2CD
:1004F000FF3341F480119A4201DA002010BD40F22E
:1005000033439A42A2F2334203DC524200F012F823
:1005100010BD904010BD202A04DB203A00FA02F101
:10052000002070479140C2F1200320FA03F31943E1
:1005300090407047202A04DB203A21FA02F0002183
:10054000704721FA02F3D040C2F1200291400843E3
:100550001946704710B5141E73F1000408DA401CE8
:1005600041F1000192185B411A4301D120F00100D2
:1005700010BD2DE9F04D92469B4611B1B1FA81F2C2
:1005800002E0B0FA80F220329046FFF7C4FF044642
:100590000F4640EA0A0041EA0B0153465A46084317
:1005A00013D0114653EA010019D0C8F14002504659
:1005B000FFF7C0FF05460E46504659464246FFF734
:1005C000AAFF084305D0012004E020463946BDE8D3
:1005D000F08D0020054346EAE0762C4337430A9825
:1005E0006305E40AA0EB08000022FD0A44EA475430
:1005F0000A3002D500200146E9E7010510196941DA
:10060000DDE9084500196941BDE8F04DA2E70000A9
:10061000064C074D06E0E06840F0010394E807004F
:1006200098471034AC42F6D3FFF7C4FD5891010847
:100630007891010870B58C1810F8015B15F007036C
:1006400001D110F8013B2A1106D110F8012B03E06B
:1006500010F8016B01F8016B5B1EF9D12B0705D473
:100660000023521E0DD401F8013BFAE710F8013BBC
:10067000CB1A921C03E013F8015B01F8015B521ED8
:10068000F9D5A142D8D3002070BD7047704770479C
:100690007047704770477047704700BFFEE770476C
:1006A000016801F58051896941F00202016801F594
:1006B00080518A617047016801F58051896941F470
:1006C0000052016801F580518A61704738B50446CF
:1006D00000200090206800F58050806940F480116F
:1006E000206800F580508161206800F580508069A5
:1006F0000090012000F00DFB0099206800F580506B
:10070000816138BD014600200A6802F0004252B9FA
:100710000A6802F4004232B90A6802F4807212B127
:100720000A68C2F30D40704710B506F0E7FA01E021
:100730000BF05CFC0A49886AFFF7E4FF0028F7D158
:1007400040210748006800F5805041618902044853
:10075000006800F58050416106F0E2FA10BD00002B
:100760008027002030B503461479557944EA0520E6
:10077000084C0C442064D4782406957844EA054457
:10078000557844EA0524157844EA0500014C0C44E8
:10079000606430BD0080024070B5AEB004460E46C5
:1007A000002526B14FF40061E160C900A16000207E
:1007B000119012901390149015901690E06918B94A
:1007C0004FF48060179001E0002017904FF4007004
:1007D0001890002019901A901B901C901D9040209A
:1007E0001E9000201F902090219022902390249012
:1007F00025902690802027900020289029902A90EC
:100800002B902C902D902068056871480540DDE9FB
:10081000110108431399084314990843A168084338
:100820001599084316990843E16808431799084346
:1008300018990843199908431A9908431B990843C2
:1008400005432068056020680568012000F061FA12
:1008500020680560DDE91C0108431E9908431F99C3
:100860000843209908432199084322990843239972
:1008700008432168486020684568012000F049FA73
:100880002068456024982168886025982168C860A0
:10089000206885694FF641700540DDE9261040EA81
:1008A000014028990843299908432A9908432B991C
:1008B000084305432068856120688569012000F0B0
:1008C00028FA20688561DDE92C0108432168C861A8
:1008D0002068C569012000F01CFA2068C56100206D
:1008E00001904FF000700290002003904FF4001030
:1008F000049000200590069007900890042009902D
:10090000C0050A9040120B9080010C9040120D908F
:1009100080200E9000200F901090206800F58050ED
:1009200085692C480540DDE9010108430399084326
:100930000499084305990843069908430799084311
:1009400008990843099908430543206800F5805039
:100950008561206800F580508569012000F0D9F993
:10096000206800F580508561DDE90A0108430C9993
:1009700008430D9908430E9908430F9940EA8100F6
:100980001099084340F40001206800F58050016090
:10099000206800F580500568012000F0BAF9206851
:1009A00000F580500560A069012809D1206800F594
:1009B0008050C06908490843216801F58051C86129
:1009C000002120466269FFF7CDFE2EB070BD000009
:1009D0000F8120FF233FDEF84000010038B50446B8
:1009E000002000902068006840F004002168086042
:1009F000206800680090012000F08BF900982168C1
:100A0000086038BD38B504460020009020680068B2
:100A100040F008002168086020680068009001200C
:100A200000F077F900982168086038BD10B54FF4E0
:100A3000A07100200CF03EF90D490860A0210020B3
:100A40000CF038F90B49086043F6883100200CF0AF
:100A500031F90949086041F6C45100200CF02AF927
:100A60000649086000BF00BF00BF00BF002010BDE6
:100A70004000002044000020480000204C000020DE
:100A800070B504461D460023B5F5804F13D154F8C8
:100A900022300C480340D1E9000640EA06108E6877
:100AA00040EA06208E8940EA06408E6930430343BF
:100AB00044F8223003E06FF0704044F82200002038
:100AC00070BD00000000F0CF10B50246002308689A
:100AD00052F820301B480340D1E901042043CC6880
:100AE00020430C6920434C6920438C692043CC6926
:100AF00020430C6A20434C6A20438C6A2043CC6A12
:100B00002043CC6B20430C6B20434C6B20430343AE
:100B10008868082801D143F04003086842F8203073
:100B2000486BB0F5801F0AD1086840B14FF480705F
:100B300008614C6B08692043146820431060002052
:100B400010BD00008000E0FF30B5034614460022CF
:100B5000601C53F8202002F04042D1E9000540EA31
:100B600005108D6840EA05208D8940EA0545088A10
:100B7000401E45EA0055087D801E45EA00608D69EB
:100B800028430243601C43F82020186800F48010BA
:100B900038B1586820F47002088A401E42EA0052B8
:100BA0005A60002030BD30B502460023002408689A
:100BB000012816D013686FF30E03D1E9010528430D
:100BC000CD6828430D6928434D6928438D69284322
:100BD000CD6928430D6A28434D6A284303431360B7
:100BE00019E013686FF30E03D1E9070528434D6A36
:100BF0002843034354686FF30E04D1E901052843E9
:100C0000CD6828430D6928434D6928438D692843E1
:100C1000044313605460002030BD0246506940EA2E
:100C20004100506100207047F8B506460C46154655
:100C3000002000900027D4E900010843A168491E64
:100C400040EA4110E16840EA41200090009830619C
:100C500000F08AFD074609E0681C38B125B100F0B4
:100C600083FDC01BA84201D90320F8BDB06900F084
:100C700020000028F0D100BFF7E770B50346154605
:100C800000220024012D1FD09A6802F070420868EB
:100C9000401E4E68761E40EA06168868401E46EAE8
:100CA0000026C868401E46EA0036088A401E46EA0A
:100CB0000046888A401E46EA0056087E401E46EAE4
:100CC000006002439A6022E0DA6802F0704208682D
:100CD000401E4E68761E40EA06168868401E46EAA8
:100CE0000026088A401E46EA0046087E401E46EA64
:100CF000006002439C6804F07044C868401E06030C
:100D0000888A401E46EA00500443DA609C60002056
:100D100070BD31B5002400F027FD044600BF00F08F
:100D200023FD001B00998842F9D338BD70B50446F5
:100D30000D461646002200BF94F84500012801D157
:100D4000022070BD012084F8450000BF022084F815
:100D50004400A56200221FE005EB42114FF0004065
:100D6000086044F2F4504860C2EBC21000EB40004F
:100D700006EB80008860A069012803D1486820F054
:100D800000404860581E904204D905EB42102030C4
:100D9000C86000E0CD60521C9A42DDD3206800F5A7
:100DA0008050C560012084F8440000BF002084F812
:100DB000450000BF00BFC4E770B504460D461646A7
:100DC000002200BF94F84500012801D1022070BD27
:100DD000012084F8450000BF022084F84400E56249
:100DE00000221BE005EB42114FF480100860C2EBBB
:100DF000C21000EB400006EB80008860E06918B983
:100E0000086840F440000860581E904204D905EB81
:100E100042102030C86000E0CD60521C9A42E1D3FD
:100E2000206800F580500561012084F8440000BF6F
:100E3000002084F8450000BF00BFC8E7014600223B
:100E400000BF91F84500012801D102207047012020
:100E500081F8450000BF022081F84400886A0068DC
:100E600000F00040002838D1886A006800F48070E3
:100E7000F0B1886B401C8863886B012801D1886AB7
:100E800008638B6A4B63886A0068C0F30D40021FD9
:100E9000CA63086B83680B64886AC0688862012033
:100EA00081F8440000BF002081F8450000BFCDE775
:100EB000886A006800F4007048B1886A08630023FB
:100EC0004B6301238B63886AC068886205E0886B86
:100ED000401C8863886AC0688862012081F84400E9
:100EE00000BF002081F8450000BF0120AEE70000F0
:100EF000FEB50446002500200290874E0190002791
:100F00000CB90120FEBD94F8440028B9002084F8F3
:100F10004500204600F00EF900BF002000907F48F9
:100F2000006840F480407D4908600846006800F48D
:100F30008040009000BF00BF7948006820F40000A6
:100F40007749086008460068216A084374490860C8
:100F5000206800F58050006840F00101206800F52D
:100F60008050016000BF206800F58050006800F0EC
:100F700001000028F7D12068056925F01C0501F063
:100F8000D5F906466748864205D36748864202D2AD
:100F900045F008051AE06448864205D35E4886425B
:100FA00002D245F00C0511E05B48864203D35F484E
:100FB000864200D20AE05D48864205D35C488642FC
:100FC00002D245F0040501E045F0100520680561F6
:100FD000606800287ED000F0C7FB019000BF02AA25
:100FE0000121204600F04CF900F0BEFB0199401AA7
:100FF00042F2107188420ED9012739462046FFF788
:10100000CBFB012084F8440000BF002084F8450099
:1010100000BF032076E7029800F004000428DED128
:1010200082020021204600F03BFA40B101273946F8
:101030002046FFF7B1FB012084F8440062E700F08E
:1010400093FB019000BF02AA0121204600F018F98D
:1010500000F08AFB0199401A42F2107188420ED9C1
:10106000012739462046FFF797FB012084F844000A
:1010700000BF002084F8450000BF032042E702982B
:1010800000F020002028DED102AA1F21204600F017
:10109000F7F840B1012739462046FFF77DFB0120D4
:1010A00084F844002EE7029800F0100020B14FF4BD
:1010B0000061E16002E00DE00021E160029800F0D3
:1010C0000400042802D10021A1601CE04FF48041FB
:1010D000A16018E0E068C0F3CF00A168C1F34F0140
:1010E00040EA01020021204600F0DAF940B1012770
:1010F00039462046FFF750FB012084F8440001E701
:10110000FF20FFF706FE39462046FFF745FB01208A
:1011100084F844000020F5E6008793034438024039
:1011200004380140002D3101C00E160200E1F50522
:1011300080D1F00810B586B0044600BF00BF002083
:1011400000904A48006840F000704849086008462E
:10115000006800F00070009000BF00BF00BF0020DA
:1011600000900846006840F080600860084600680B
:1011700000F08060009000BF00BF00BF0020009022
:101180000846006840F0006008600846006800F00B
:101190000060009000BF00BF00BF00BF00200090B3
:1011A0000846006840F0010008600846006800F04A
:1011B0000100009000BF00BF00BF00200090084663
:1011C000006840F0020008600846006800F0020075
:1011D000009000BF00BF00BF0020009008460068DC
:1011E00040F0040008600846006800F00400009029
:1011F00000BF00BF00BF002000900846006840F01C
:10120000400008600846006800F04000009000BF01
:1012100000BF86200190022002900020039003204E
:1012200004900B20059001A9114800F081F94FF4BA
:101230000060019001A90F4800F07AF93220019076
:1012400001A90D4800F074F94FF4C040019001A9C4
:101250000A4800F06DF9002211463D2000F0B6FC6E
:101260003D2000F0A6FC06B010BD00003038024062
:101270000000024000040240000802400018024042
:10128000F8B504460E46174600250020009094F855
:101290004400822801D10220F8BD822084F8440055
:1012A0002068056905F01C05208A4FF4784101EAA1
:1012B000C0200543481100EA8610054325F00205C9
:1012C00045F001052068056100F04EFA009012E03B
:1012D00000F04AFA0099401AB0F5803F09D3012086
:1012E00084F8440000BF002084F8450000BF0320BC
:1012F000D2E72068056905F001000028E8D12068E0
:10130000406980B23860012084F844000020C3E7BF
:1013100010B5044600BF94F84500012801D1022011
:1013200010BD012084F8450000BF022084F844006D
:101330002046FFF767FB2046FFF750FB2046FFF7EC
:10134000C5F92046FFF7B7F92046FFF7A9F90120B4
:1013500084F8440000BF002084F8450000BF00BFAF
:10136000DEE770B5024600230025002400BF92F896
:101370004500012801D1022070BD012082F84500FE
:1013800000BF022082F8440049B9012082F84400DD
:1013900000BF002082F8450000BF0120ECE7D06AC2
:1013A000006800F0004048B1122082F8440000BFFD
:1013B000002082F8450000BF0120DDE740F2F45034
:1013C000814208D9B1FBF0F3B1FBF0F600FB161037
:1013D00010B15B1C00E00123012B13D1D06A00681F
:1013E00040F04050D66A3060C1F30C00D66A70609D
:1013F000D06A006840F00040D66A3060D06AC068A9
:10140000D06232E000242EE0D06A006820F0405024
:10141000D66A30602CB9D06A006840F08050D66A35
:10142000306040F2F450D66A7060581EA04210D16D
:10143000D06A006840F00050D66A3060581EC0EB99
:10144000C01000EB4000A1EB8005C5F30C00D66A8C
:101450007060D06A006840F00040D66A3060D06AA0
:10146000C068D062641C9C42CED3106800F58050E6
:10147000406900F0040048B10426106800F580506F
:1014800046610026106800F580504660012082F811
:10149000440000BF002082F8450000BF00BF6BE79A
:1014A0002DE9F04104460E4617460025A84694F85B
:1014B0004400422802D10220BDE8F081422084F895
:1014C00044002068056905F01C05208A4FF4784126
:1014D00001EAC0200543481100EA8610054345F0A3
:1014E000020545F00105B8B2216848612068056130
:1014F00000F03AF9804612E000F036F9A0EB08005F
:10150000B0F5803F09D3012084F8440000BF0020DB
:1015100084F8450000BF0320CEE72068056905F088
:1015200001000028E8D1012084F844000020C3E72E
:10153000F8B502460B460025002400200021E6E015
:10154000012606FA01F51E6806EA0504AC4273D1CD
:101550005E68022E02D05E68122E13D1CF0802F10F
:10156000200656F827004E07F70E0F26BE40B04360
:101570004F07FF0E1E69BE403043CF0802F1200620
:1015800046F8270010684F000326BE40B0431E797E
:1015900006F003064F00BE40304310605E68012E27
:1015A00008D05E68022E05D05E68112E02D05E68FB
:1015B000122E13D190684F000326BE40B0434F0057
:1015C000DE68BE4030439060506801268E40B043D4
:1015D0001E79C6F300168E4030435060D0684F002D
:1015E0000326BE40B0434F009E68BE403043D060EB
:1015F0005E6806F08056B6F1805FA8D100BF002675
:101600000096454E366846F48046434F3E603E465F
:10161000366806F48046009600BF00BF3F4E8F0834
:1016200056F827008E07370F0F26BE40B0433C4EBA
:10163000B24202D100262EE068E03A4EB24201D119
:10164000012628E0384EB24201D1022623E0374E6F
:10165000B24201D103261EE0354EB24201D104262A
:1016600019E0344EB24201D1052614E0324EB242A6
:1016700001D106260FE0314EB24201D107260AE021
:101680002F4EB24201D1082605E02E4EB24201D1C2
:10169000092600E00A268F073F0FBE4030431F4E49
:1016A0008F0846F82700284E3068A0435E6806F48D
:1016B0008036B6F5803F00D12043234E3060361D82
:1016C0003068A0435E6806F40036B6F5003F00D1EE
:1016D00020431D4E361D3060361D3068A0435E68C5
:1016E00006F48016B6F5801F00D12043164E08364A
:1016F0003060361D3068A0435E6806F40016B6F50B
:10170000001F00D12043104E0C363060491C1029B8
:10171000FFF416AFF8BD000044380240083801401D
:10172000000002400004024000080240000C024099
:10173000001002400014024000180240001C024049
:101740000020024000240240003C01400246136990
:101750000B400BB1012000E0002070470AB181610D
:1017600001E00B0483617047014800687047000086
:101770001C00002002480068401C014908607047B6
:101780001C00002010B50D48006840F400700B49A3
:1017900008600846006840F48060086008460068F9
:1017A00040F480700860052000F04EFA0F2000F031
:1017B00007F800F0F9F9002010BD0000003C0240DD
:1017C00070B5044600F0B2FD4FF47A71B0FBF1F54C
:1017D000284601F0CFF900222146501E00F0F6F90C
:1017E000002070BD70B504460E46154600BF94F843
:1017F000A000012801D1022070BD012084F8A000C2
:1018000000BF022084F8A10005EB850101EBC502B1
:1018100004F1380101EB820034223146FEF79DFDD0
:101820002A463146204605F0E5F801202168486245
:1018300084F8A10000BF002084F8A00000BF00BF12
:10184000DAE7000070B50446002500260CB9012037
:1018500070BD94F8A10028B9002084F8A0002046AB
:1018600000F084F8022084F8A1002068806920F04C
:10187000704021688861D4E901010843E1680843A8
:1018800021690843216889690843216888612068C3
:1018900080683549084021688860A08A050420686E
:1018A0008068A16929430843216888602068C0686E
:1018B0002D4908402168C860A08B05042068C068D5
:1018C000216A294308432168C860206800692649C5
:1018D000084021680861A08C050420680069A16A9D
:1018E0002943084321680861206840691E4908406F
:1018F00021684861A08D050420684069216B294357
:1019000008432168486194F83500050294F83600D0
:1019100006042068C06A00F07F402168C86246EA79
:10192000050094F8341008432168C96A0843216807
:10193000C8622068406B40F004002168486320685A
:10194000406B40F00200216848632068806940F0E5
:101950000100216888610020C4F8A400012084F8F7
:10196000A100002074E7000000F800F010B586B078
:10197000044600BF002000904D48006840F08060A1
:101980004B4908600846006800F08060009000BF86
:1019900000BF00BF0020009045481438006840F4A4
:1019A00000004349143908600846006800F400004C
:1019B000009000BF00BF00BF0020009008460068F4
:1019C00040F0020008600846006800F00200009045
:1019D00000BF00BF00BF002000900846006840F034
:1019E000200008600846006800F02000009000BF5A
:1019F00000BF00BF002000900846006840F0400093
:101A000008600846006800F04000009000BF00BF7A
:101A100000BF002000900846006840F08000086089
:101A20000846006800F08000009000BF00BF00BFC3
:101A3000002000900846006840F480700860084666
:101A4000006800F48070009000BF00BF202001906B
:101A50000120029003900320049001A91548FFF78C
:101A600067FD4FF4806001900220029000200390F7
:101A7000032004900E20059001A90F48FFF758FDA0
:101A80004FF40C60019001A90C48FFF751FD4FF491
:101A90007E40019001A90A48FFF74AFD40F2F76035
:101AA000019001A90748FFF743FD06B010BD0000F3
:101AB0004438024000040240001402400018024072
:101AC000001C0240002002402DE9F04104460E4671
:101AD0001746984600BF94F8A000012802D10220C2
:101AE000BDE8F081012084F8A00000BF022084F846
:101AF000A10008EB880000EBC80104F1380000EBFE
:101B000081052E60A86A30446860AF60E86A384496
:101B1000E86042462946204604F06CFF0120216817
:101B2000486284F8A10000BF002084F8A00000BF34
:101B300000BFD5E72DE9F04105460E461746984609
:101B400000BF95F8A000012802D10220BDE8F08175
:101B5000012085F8A00000BF022085F8A10008EB55
:101B6000880000EBC80105F1380000EB810400207B
:101B700020602068304460600020A060A068384485
:101B8000E060A662E76242462146284604F032FF42
:101B900001202968486285F8A10000BF002085F86F
:101BA000A00000BF00BFD1E708B50020009000BF33
:101BB00008BD00BF00F01F020121914042099200C0
:101BC00002F1E022C2F8001100BF70472DE9F05F7A
:101BD00080460D461646002705F018F80746394698
:101BE0002A46334601F00700C0F1070ABAF1040F94
:101BF00002D94FF0040A01E0C0F1070AD14600F112
:101C0000040ABAF1070F02D24FF0000A01E0A0F176
:101C1000030AD4464FF0010A0AFA09FAAAF1010AA6
:101C20000AEA020A0AFA0CFA4FF0010B0BFA0CFB53
:101C3000ABF1010B0BEA030B4AEA0B0421464046C9
:101C400004F0ECFFBDE8F09F00BF00F00702064B78
:101C500019684FF6FF031940044B0B4343EA022176
:101C6000014B196000BF70470CED00E00000FA0561
:101C700038B5002400BF002000902348006840F0E1
:101C80008050214908600846006800F080500090AC
:101C900000BF00BF0120010491FAA1F1B1FA81F166
:101CA0001A4A42F82100FFF75FFD044607E0FFF7FC
:101CB0005BFD001BB0F57A7F01D9032038BD1448C5
:101CC000406800F48030B0F5803FF0D1012041043D
:101CD00091FAA1F1B1FA81F10C4A42F82100FFF723
:101CE00043FD044607E0FFF73FFD001BB0F57A7F98
:101CF00001D90320E2E70648406800F40030B0F55F
:101D0000003FF0D10020D9E74038024000000E42E9
:101D100000700040F8B5044600250026207800F049
:101D2000010020B9207800F00200022866D10020CE
:101D3000CC498866FFF718FD054606E0FFF714FD5D
:101D4000401B642801D90320F8BDC7480068C0F3D0
:101D5000C0600028F2D1207800F0010098B147F669
:101D6000C07191FAA1F1B1FA81F1606888404FF039
:101D7000E04292FAA2F2B2FA82F2A16891400843DC
:101D8000B94984310860207800F00200022821D18E
:101D9000B5488430006800F0E0404FF0E04191FA2F
:101DA000A1F1B1FA81F120FA01F660688101207B8E
:101DB00041EA006040EA0670AB4984310860AA48F5
:101DC0008C30006820F01F00E169491E0843A649D5
:101DD0008C3108600120A3498866FFF7C5FC0546E1
:101DE00006E0FFF7C1FC401B642801D90320ABE7E4
:101DF0009D480068C0F3C0600028F2D0207800F051
:101E00000400042804D0207800F0080008287DD1C0
:101E1000002094490867FFF7A7FC054606E0FFF796
:101E2000A3FC401B642801D903208DE78E4800687D
:101E3000C0F340700028F2D1207800F0040004289C
:101E400034D189488830006800F0E0404FF0E0412C
:101E500091FAA1F1B1FA81F120FA01F647F6C071C9
:101E600091FAA1F1B1FA81F1206988404FF07062D6
:101E700092FAA2F2B2FA82F26169914008434FF0FD
:101E8000E04191FAA1F1B1FA81F106FA01F10843BA
:101E9000754988310860081D006820F4F851206AEF
:101EA000401E41EA002070498C310860207800F023
:101EB0000800082834D16C488830006800F0706051
:101EC0004FF0706191FAA1F1B1FA81F120FA01F6B7
:101ED00047F6C07191FAA1F1B1FA81F12069884009
:101EE0004FF0706191FAA1F1B1FA81F106FA01F1B6
:101EF00008434FF0E04292FAA2F2B2FA82F2A169EC
:101F00009140084358498831086000E01CE0081DF2
:101F1000006820F44030616A084353498C310860FE
:101F2000012050490867FFF71FFC054606E0FFF750
:101F30001BFC401B642801D9032005E74A480068C0
:101F4000C0F340700028F2D0207800F02000202854
:101F50007DD100BF0020009043484030006840F031
:101F600080504149403108600846006800F08050C8
:101F7000009000BF00BF3D48006840F480703B49BE
:101F80000860FFF7F1FB054606E0FFF7EDFB401B9D
:101F9000642801D90320D7E63448006800F4807033
:101FA0000028F2D030487030006800F44070218D75
:101FB00001F4407188424AD02B487030006820F408
:101FC000407601202A4908600020086026487030C9
:101FD000066006F0020098B1FFF7C6FB054608E070
:101FE000FFF7C2FB401B41F28831884201D9032030
:101FF000AAE61D4870300068C0F340000028EFD00A
:1020000000BF208D00F44070B0F5407F0CD1164821
:102010000830006820F4F810164AA16A11400843FD
:1020200011490831086007E00F480830006820F4C3
:10203000F8100D49083108600B4870300068218D98
:10204000C1F30B01084308497031086000BF2078D4
:1020500000F01000102803D194F82C000649086005
:10206000002071E600004742003802400070004046
:10207000400E4742FFFCFF0FE011474270B5044697
:102080000E460025A748006800F00F00B0426FD24E
:10209000A4490E700846006800F00F00B04201D05D
:1020A000012070BD207800F00200022807D19E4870
:1020B000006820F0F000A16808439B490860207880
:1020C00000F0010000283ED06068012807D1964842
:1020D00008380068C0F34040B8B90120E1E7606803
:1020E000022802D06068032807D18F4808380068AA
:1020F000C0F3406048B90120D3E78B480838006836
:10210000C0F3400008B90120CBE78748006820F001
:1021100003006168084384490860FFF725FB054612
:102120006068012810D108E0FFF71EFB401B41F258
:102130008831884201D90320B3E77B48006800F06A
:102140000C000428F0D1CDE06068022811D108E02D
:10215000FFF70AFB401B41F28831884201D9032076
:102160009FE77148006800F00C000828F0D1B9E042
:1021700024E06068032810D108E0FFF7F5FA401B5F
:1021800041F28831884201D903208AE76648006815
:1021900000F00C000328F0D1A4E008E0FFF7E4FA17
:1021A000401B41F28831884201D9032079E75E481B
:1021B000006800F00C000028F0D193E0207800F0D7
:1021C0000200022807D15848006820F0F000A168FA
:1021D000084355490860207800F00100002877D0B6
:1021E0006068012807D1504808380068C0F34040B3
:1021F000B8B9012055E76068022802D0606803285A
:1022000007D1494808380068C0F3406048B9012048
:1022100047E7454808380068C0F3400008B9012086
:102220003FE74148006820F00300616808433E49E9
:102230000860FFF799FA05466068012810D108E0A8
:10224000FFF792FA401B41F28831884201D90320FE
:1022500027E73548006800F00C000428F0D137E08B
:102260006068022810D108E0FFF77EFA401B41F2B7
:102270008831884201D9032013E72B48006800F019
:102280000C000828F0D123E06068032810D108E092
:10229000FFF76AFA401B41F28831884201D90320D6
:1022A000FFE62148006800F00C000328F0D10FE0A1
:1022B00008E0FFF759FA401B41F28831884201D902
:1022C0000320EEE61848006800F00C000028F0D16A
:1022D00014490E700846006800F00F00B04201D0AB
:1022E0000120DEE6207800F00400042807D10E4823
:1022F000006820F4E050E16808430B49086020784A
:1023000000F00800082808D10748006820F4604061
:10231000216940EAC100044908600F20FFF750FA24
:102320000020BEE6003C02400838024010B500F034
:1023300045F80949096801F0F001F02292FAA2F289
:10234000B2FA82F2D140054A515CC84004490860A3
:102350000846006810BD000008380240F04501083A
:102360000800002010B5FFF7E1FF0749096801F4F4
:10237000E0514FF4E05292FAA2F2B2FA82F2D14066
:10238000024A515CC84010BD08380240F0450108BF
:1023900010B5FFF7CBFF0749096801F460414FF41E
:1023A000604292FAA2F2B2FA82F2D140024A515C41
:1023B000C84010BD08380240F045010870B5002142
:1023C000002200230020274C246804F00C0424B1D0
:1023D000042C04D0082C41D103E0234840E02348DA
:1023E0003EE0204C241F246804F03F011D4C241FB4
:1023F000246804F4800484B11C4CB4FBF1F5194C3E
:10240000241F246847F6C076344096FAA6F6B6FA3A
:1024100086F6F44005FB04F20FE0134CB4FBF1F533
:10242000104C241F246847F6C076344096FAA6F66E
:10243000B6FA86F6F44005FB04F20A4C241F246821
:1024400004F440344FF4403595FAA5F5B5FA85F516
:10245000EC40641C6300B2FBF3F001E0024800BFF3
:1024600000BF70BD083802400024F40040787D01B0
:1024700038B504460025207800F00100002866D019
:10248000F748006800F00C0004280DD0F4480068FC
:1024900000F00C00082813D1F148001F006800F478
:1024A0008000B0F5800F0BD1ED4808380068C0F30C
:1024B000404000284BD06068002848D1012038BD3A
:1024C0000020E749891F0870FFF74EF9054608E02C
:1024D000FFF74AF9401B41F28831884201D90320B5
:1024E000EDE7DF4808380068C0F340400028EFD12E
:1024F0002079DB49891F08706068A0B1FFF734F9C3
:10250000054608E0FFF730F9401B41F28831884268
:1025100001D90320D3E7D24808380068C0F340400F
:102520000028EFD013E0FFF71FF9054608E0FFF79A
:102530001BF9401B41F28831884201D90320BEE7D4
:10254000C74808380068C0F340400028EFD1207821
:1025500000F00200022869D1C148006800F00C00B8
:1025600058B1BF48006800F00C00082821D1BC48D1
:10257000001F006800F48000D8B9B9480838006826
:10258000C0F3400020B1E068012801D0012096E7A7
:10259000B3480838006820F0F800F82292FAA2F256
:1025A000B2FA82F2216991400843AD4908390860C6
:1025B0003CE0E06828B30120AA490860FFF7D4F89E
:1025C000054606E0FFF7D0F8401B642801D9032038
:1025D00075E7A34808380068C0F340000028F1D030
:1025E0009F480838006820F0F800F82292FAA2F21A
:1025F000B2FA82F22169914008439949083908608A
:1026000014E0002097490860FFF7AEF8054606E0A1
:10261000FFF7AAF8401B642801D903204FE7904830
:1026200008380068C0F340000028F1D1207800F09D
:10263000080008282CD16069A8B101208A490860E7
:10264000FFF792F8054606E0FFF78EF8401B642876
:1026500001D9032033E782486C300068C0F34000A2
:102660000028F1D014E000207F490860FFF77CF8D3
:10267000054606E0FFF778F8401B642801D90320DF
:102680001DE777486C300068C0F340000028F1D1A6
:10269000207800F0040004286FD100BF00200090D3
:1026A0006F483830006840F080506D49383108601C
:1026B0000846006800F08050009000BF00BF6B48E3
:1026C000006840F4807069490860FFF74DF80546DE
:1026D00006E0FFF749F8401B642801D90320EEE625
:1026E0006248006800F480700028F2D000205C4945
:1026F00068310870FFF738F8054608E0FFF734F84E
:10270000401B41F28831884201D90320D7E6544862
:1027100068300068C0F340000028EFD1207A5049AB
:1027200068310870A068A0B1FFF71EF8054608E000
:10273000FFF71AF8401B41F28831884201D9032083
:10274000BDE6474868300068C0F340000028EFD07D
:1027500013E0FFF709F8054608E0FFF705F8401B0E
:1027600041F28831884201D90320A8E63C4868300C
:102770000068C0F340000028EFD1A069F0B33848EA
:10278000006800F00C00082872D0A069022850D11F
:10279000002034490866FEF7E7FF054606E0FEF72D
:1027A000E3FF401B642801D9032088E62C48083841
:1027B0000068C0F340600028F1D1D4E90701084364
:1027C00047F6C07292FAA2F2B2FA82F2616A9140BE
:1027D00008430122A16AC2EB51014FF4403292FA40
:1027E000A2F2B2FA82F2914008434FF0706292FA7C
:1027F000A2F2B2FA82F2E16A914000E03AE00843C4
:102800001749091F0860012016490866FEF7ACFF4A
:10281000054606E0FEF7A8FF401B642801D9032007
:102820004DE60F4808380068C0F340600028F1D03A
:1028300020E000200B490866FEF796FF054606E0FB
:10284000FEF792FF401B642801D9032037E60448B5
:1028500008380068C0F340600028F1D10AE007E0C2
:102860000838024000004742800E47420070004096
:10287000012024E6002022E670B504460D460CB97E
:10288000012070BD94F82C0028B9002084F82D0098
:10289000204600F011F8022084F82C00211D206849
:1028A000FEF781F92946D4E90002FEF7E6F9012096
:1028B00084F82C000020E4E710B586B0044600BF81
:1028C000002000904348006840F001004149086042
:1028D0000846006800F00100009000BF00BF00BF84
:1028E000002000903B480838006840F00400394957
:1028F000083908600846006800F00400009000BF36
:1029000000BF00BF002000900846006840F00800AB
:1029100008600846006800F00800009000BF00BF93
:1029200000BF002000900846006840F010000860DA
:102930000846006800F01000009000BF00BF00BF14
:10294000002000900846006840F02000086008461B
:10295000006800F02000009000BF00BF00BF002012
:1029600000900846006840F0400008600846006893
:1029700000F04000009000BF00BF0D200190022039
:10298000029001200390032004900C20059001A9DF
:102990001148FEF7CDFD4CF20370019001A90F48DC
:1029A000FEF7C6FD4FF68370019001A90C48FEF7B3
:1029B000BFFD4FF63F00019001A90A48FEF7B8FDA0
:1029C00048F23710019001A90748FEF7B1FD06B0A3
:1029D00010BD00003838024000080240000C0240E0
:1029E00000100240001402400018024070B5044676
:1029F0000D4694F82C00022800D170BD022084F806
:102A00002C0029462068FEF708F9012084F82C00E4
:102A10000020F2E770B504460D46164694F82C00E7
:102A2000022800D170BD022084F82C0032462946CD
:102A30002068FEF7F9F82868022803D1052084F8F9
:102A40002C0002E0012084F82C000020EAE770B599
:102A500004460E4615460CB9012070BD94F8490095
:102A600028B9002084F84800204600F01DF804F141
:102A700008012068FEF728F83146A2682068FEF7B2
:102A800063F82946236BD4E90102FDF7F9FFA16839
:102A9000206850F8210040F00100A268216841F848
:102AA00022000020D9E7000010B586B0044600BF20
:102AB000002000902248006840F001002049086092
:102AC0000846006800F00100009000BF00BF00BF92
:102AD000002000901A480838006840F008001849A3
:102AE000083908600846006800F00800009000BF40
:102AF00000BF00BF002000900846006840F01000B2
:102B000008600846006800F01000009000BF00BF99
:102B10004EF2B37001900220029001200390032036
:102B200004900C20059001A90648FEF701FD4FF620
:102B30008070019001A90448FEF7FAFC06B010BDB0
:102B400038380240000C024000100240042808D12E
:102B50004FF0E021096941F004014FF0E0221161DA
:102B600007E04FF0E021096921F004014FF0E02275
:102B70001161704770B504462546681EB0F1807F2C
:102B800001D301200FE0681E4FF0E02148610F21C2
:102B90004FF0FF3004F042F800204FF0E021886150
:102BA00007200861002070BD7047704710B50446CB
:102BB0000CB9012010BD94F8390028B9002084F820
:102BC0003800204600F00CF8022084F83900211D5E
:102BD000206805F09BFD012084F839000020E9E71A
:102BE00038B5044600BF002000900B48006840F054
:102BF0000200094908600846006800F002000090E1
:102C000000BF00BF012211461D20FEF7DFFF1D207F
:102C1000FEF7CFFF38BD000040380240014608688B
:102C2000C06840F001000A68D0600868006840F0A1
:102C300001000A68106000207047704710B5044614
:102C400020680069C0F34000D8B12068C068C0F3B4
:102C50004000B0B16FF002002168086101202076C9
:102C60002068806900F0030018B12046FFF7E5FFF7
:102C700005E0204600F0ADF8204600F0ABF800205B
:102C8000207620680069C0F38000D8B12068C06851
:102C9000C0F38000B0B16FF0040021680861022029
:102CA00020762068806900F4407018B12046FFF754
:102CB000C4FF05E0204600F08CF8204600F08AF8BA
:102CC0000020207620680069C0F3C000D8B12068D9
:102CD000C068C0F3C000B0B16FF00800216808619F
:102CE000042020762068C06900F0030018B1204657
:102CF000FFF7A3FF05E0204600F06BF8204600F048
:102D000069F80020207620680069C0F30010D8B16F
:102D10002068C068C0F30010B0B16FF010002168E7
:102D20000861082020762068C06900F4407018B15E
:102D30002046FFF782FF05E0204600F04AF82046D3
:102D400000F048F8002020762068006900F00100BB
:102D500058B12068C06800F0010030B16FF0010088
:102D600021680861204600F036F820680069C0F349
:102D7000C01058B12068C068C0F3C01030B16FF007
:102D80008000216808612046FFF70EFF2068006977
:102D9000C0F3801058B12068C068C0F3801030B113
:102DA0006FF0400021680861204600F015F82068A7
:102DB0000069C0F3401058B12068C068C0F34010EB
:102DC00030B16FF02000216808612046FFF7EDFE6A
:102DD00010BD70477047704770477047014691F8C3
:102DE00039007047F8B504460025002620680068C1
:102DF00000F001052068C06800F480767DB176B1EE
:102E000000BF0020009020680068009020684068A3
:102E1000009000BF00BFE06B40F00100E06320685D
:102E20000068C0F340052068406900F001067DB1EC
:102E300076B100BF002000902068006800902068F4
:102E40004068009000BF00BFE06B40F00400E0630A
:102E500020680068C0F380052068406900F0010622
:102E60007DB176B100BF002000902068006800901E
:102E700020684068009000BF00BFE06B40F0020097
:102E8000E06320680068C0F3C0052068406900F076
:102E900001067DB176B100BF002000902068006877
:102EA000009020684068009000BF00BFE06B40F0D9
:102EB0000800E06320680068C0F340152068C0681F
:102EC00000F020061DB116B1204605F0F5FC206883
:102ED0000068C0F3C0152068C06800F080061DB10E
:102EE00016B1204605F058FE20680068C0F3801532
:102EF0002068C06800F040061DB116B1204605F0FC
:102F0000C3FCE06B28B1012084F839002046FFF7AC
:102F100064FFF8BD10B504460CB9012010BDA069CE
:102F200000B100E000BF94F8390028B9002084F80F
:102F30003800204600F026F8022084F83900206886
:102F4000C06820F400502168C860204605F012FDDA
:102F50002068006920F49040216808612068406979
:102F600020F02A00216848612068C06840F40050C1
:102F70002168C8600020E063012084F83900002047
:102F8000CCE7000010B586B004462249206888428C
:102F90003ED100BF002000901F48006840F00100B3
:102FA0001D4908600846006800F00100009000BF5D
:102FB00000BF00BF0020009017481430006840F0A8
:102FC00010001549143108600846006800F0100030
:102FD000009000BF00BF4815019002200290012020
:102FE0000390022004900720059001A90B48FEF7EA
:102FF0009FFA4FF48060019001A90848FEF798FA03
:103000002520FEF7D6FD032211462520FEF7DEFD22
:1030100006B010BD001001403038024000000240F0
:1030200030B50346002493F83940012C01D0122C0E
:1030300037D101B10AB9012030BD00BF93F8380083
:10304000012801D10220F7E7012083F8380000BFF2
:1030500099629A85DA850020D86393F8390012289E
:1030600003D1322083F8390002E0222083F83900AE
:103070001868C06840F480701D68E860186840698E
:1030800040F001001D68686100BF002083F838002F
:1030900000BF1868C06840F020001D68E86000208C
:1030A000CAE70220C8E700001D4A0168914236D1F4
:1030B0001C49098801F4004189BB1A49098801F4B7
:1030C000804171B1184909780A2903D00021154AB5
:1030D000118024E01349098841F40041114A11800C
:1030E0001DE0114909780D2906D10E49098841F4DE
:1030F00080410C4A118012E00B490978094A128874
:10310000C2F30D02094B995406490988491C054A26
:10311000118011460988C72901DD002111807047FF
:10312000001001402C0000202E000020DC24002094
:10313000704700BFFEE7000010B500200F4908608F
:103140000F48006820F440600D4908600846006898
:1031500040F48060086000200A49C1F8940202200F
:1031600006F09AF8012005490860022006F094F85C
:1031700000200449C1F8900210BD00009082434233
:10318000001C02400080434200B587B000BF002011
:1031900001901048006840F080000E490860084621
:1031A000006800F08000019000BF00BF3020029056
:1031B0000120039004900220059002A90648FEF722
:1031C000B7F90120054908600549C1F8900207B028
:1031D00000BD000030380240001C0240948243428F
:1031E0000080434210B500200F4908600F48006876
:1031F00020F440600D4908600846006840F4806093
:10320000086001200A49C1F89402022006F044F83F
:10321000012005490860022006F03EF8002004491C
:10322000C1F8900210BD000090824342001C024091
:103230000080434270B5054600241648006820F41B
:10324000406014490860084600680860002616E0DF
:10325000002011490860022006F01EF801200F49E5
:10326000C1F890026006040E0B487C38006808B173
:10327000601CC4B2012006F00FF8701CC6B2082E04
:10328000E6DB15B9FFF7AEFF01E0FFF755FF20467B
:1032900070BD0000001C0240908243420080434207
:1032A00070B504461548006820F440601349086072
:1032B0000846006840F480600860002010490860FB
:1032C000002517E0E0090E49091D08606006040E9C
:1032D000022005F0E1FF01200A49C1F89002022016
:1032E00005F0DAFF002006490860022005F0D4FF4F
:1032F000681CC5B2082DE5DB70BD0000001C024053
:10330000908243420080434210B50F48006820F489
:1033100040600D4908600846006840F4806008601D
:1033200001200A4908600A49C1F89002042005F00A
:10333000B3FF002005490860042005F0ADFF002020
:103340000349C1F8900210BD001C02409482434220
:103350000080434210B50F48006820F440600D49DA
:1033600008600846006840F48060086000200A4950
:1033700008600A49C1F89402042005F08DFF01207D
:10338000054908600549C1F89402042005F084FF4E
:1033900010BD0000001C0240908243420080434266
:1033A00010B500241348006820F4406011490860FB
:1033B00008460068086001200F49086005F06CFFAE
:1033C00001200E49C1F8900205F066FF07E0601C7D
:1033D000C4B2FA2C03DDFFF7BDFF012010BD064883
:1033E000803800680028F2D10349091F086000BF37
:1033F000F4E70000001C02409482434200804342F4
:1034000000B587B000BF002001902648006840F05A
:103410000100244908600846006800F0010001909E
:1034200000BF00BF00BF002001900846006840F0C8
:10343000040008600846006800F00400019000BF26
:1034400000BF00BF002001900846006840F08000E7
:1034500008600846006800F08000019000BF00BFCF
:103460000120029000200390022004900320059088
:1034700002A90D48FEF75CF84FF4005002900020BE
:103480000390012004900320059002A90748FEF74D
:103490004FF80C20029002A90548FEF749F807B042
:1034A00000BD000030380240000002400008024029
:1034B000001C024010B50446012C01D121490870BE
:1034C0002048007848B32048006850B11E48001FCB
:1034D000006830B11D48006818B11D480068012817
:1034E0001BD10A2005F0A2FE0020164908701648DC
:1034F000006808B9012010BD1348001F006808B912
:103500000220F8E71148006808B90320F3E71048E3
:103510000068012814D10420EDE70B480068012859
:103520000ED10948001F0068012809D1074800682A
:10353000012805D10648006810B90120014908702A
:103540000020D8E72F0000200C8243423402414281
:10355000000240421CB5FCF734FE0121072004F0B4
:103560006AFF642005F062FE0021072004F063FF7B
:10357000642005F05BFEFCF726FE1A4800788DF803
:103580000000184840788DF80100164880788DF8C2
:1035900002001448C0788DF80300124800798DF8B5
:1035A0000400104840798DF805000F480F49086065
:1035B0000120486081030D488160C910C16000216D
:1035C0000182C0F814D0012181610021C1614FF452
:1035D00000010162FDF78CFC08B900201CBD012030
:1035E000FCE7000040D1012000800240802700203D
:1035F00070B5044600260D4805880D48006818B1CE
:10360000204602F00FFF0FE00848408845430021A4
:10361000084602F041FD02F0C5FE002602E0054921
:103620000C80761CAE42FAD370BD00003426002018
:10363000602700200000086010B504465C488471D3
:103640005C48006850B1204602F012FF5948C08A19
:10365000574908805748008B488010BD002C51D135
:10366000F020534908804FF4A070488008468088B5
:1036700049F24131884205D04D48808845F21031E9
:10368000884214D12C204A4908812A2048812B20C5
:1036900088810846808845F21031884206D14FF46F
:1036A000A070434908804FF4F07048807BE04048A8
:1036B000808845F21051884210D14FF430503C4977
:1036C00008814FF4285048814FF42C5088814FF4E2
:1036D000F07008804FF44870488064E03448808877
:1036E00041F6631188425ED12C20314908812B209C
:1036F00048812A2088814FF4F07008804FF4487088
:10370000488050E04FF4A07029490880F02048809C
:103710000846808849F24131884205D02448808893
:1037200045F21031884207D12C20214908812A20F6
:1037300048812B20888129E01D48808845F210515E
:10374000884210D14FF43050194908814FF4285065
:1037500048814FF42C5088814FF4487008804FF412
:10376000F070488012E01248808841F66311884268
:103770000CD12C200E4908812A2048812B208881D9
:103780004FF4487008804FF4F070488008488088F3
:1037900045F21031884206D14FF4F0700449088098
:1037A0004FF4A0704880002002F03CFB00BF54E7BB
:1037B000342600206027002070B504460D461646CA
:1037C0004348006828B132462946204602F066FE8A
:1037D00070BD4048808849F24131884205D03D485B
:1037E000808845F21031884214D13A49488902F064
:1037F000CDFD201202F0BEFDE0B202F0BBFD354966
:10380000888902F0C3FD281202F0B4FDE8B202F08C
:10381000B1FD54E02F48808845F21051884220D1F4
:103820002C49488902F0B2FD201202F0A3FD29497B
:103830004989491C88B202F0A9FDE0B202F09AFD64
:103840002449888902F0A2FD281202F093FD214943
:103850008989491C88B202F099FDE8B202F08AFD1C
:103860002DE01C48808841F66311884227D1194811
:10387000807920B917480088401E001B84B2154982
:10388000488902F083FD201202F074FDE0B202F0DC
:1038900071FD201202F06EFDE0B202F06BFD0D49E9
:1038A000888902F073FD281202F064FDE8B202F08C
:1038B00061FD281202F05EFDE8B202F05BFD0548F2
:1038C000008905490880891C0E8000BF80E7000040
:1038D0006027002034260020FEFF07602DE9F84F06
:1038E00005460E4617469846DDF828904FF0000B27
:1038F0001448006840B143463A4631462846CDF860
:10390000009002F0F3FD1BE0781B401C1FFA80FBC7
:10391000344613E02146284602F0BEFB02F042FD89
:103920004FF0000A06E00849A1F800900AF10100F2
:103930001FFA80FADA45F6DB601C84B24445E9DD03
:10394000BDE8F88F602700200000086000B595B042
:1039500002F0E2FFFE4988800846808818B102F034
:1039600069FE02F0F0B900BF00200190F94800683C
:1039700040F00200F74908600846006800F00200C5
:10398000019000BF00BF20201090012011901290E4
:103990000320139010A9F048FDF7CAFD4FF0204016
:1039A000EE490860EE484860002088600021EB483E
:1039B000C16001611021416100218161C1614162E9
:1039C0004FF4805181620021C1624FF48041016354
:1039D0000021416381634FF48011C1630F2009907E
:1039E00000200A9046200B9000200F900F2002909C
:1039F000002003900F2004900020089002AA09A93B
:103A0000D648FFF724F8322005F010FCD32002F04E
:103A1000BDFC02F0CDF9CE49888002F0C9F9CC494D
:103A2000888002F0C5F9CA498880084680884FF628
:103A3000FF7101EA0020C649888002F0B9F9C44943
:103A400089880843C24988800846808849F2413104
:103A5000884278D0D42002F099FC02F0A9F9BC4940
:103A6000888002F0A5F9BA49888002F0A1F9B84926
:103A70008880084680884FF6FF7101EA0020B4492B
:103A8000888002F095F9B24989880843B049888056
:103A90000846808845F21031884254D04FF45A408D
:103AA00002F074FC02F084F9A94988804FF45B406D
:103AB00002F06CFC02F07CF9A549888008468088F9
:103AC0004FF6FF7101EA0020A14988804FF45C4065
:103AD00002F05CFC02F06CF99D49898808439C491E
:103AE000888008468088B0F5004F02D145F210501A
:103AF00088809748808845F21051884223D0A120C1
:103B000002F044FC02F054F99149888002F050F927
:103B10008F498880084680884FF6FF7101EA0020AF
:103B20008B49888002F044F989498988084388498B
:103B300088800846808845F26171884203D141F649
:103B40006310834988808248818886A005F0D2F876
:103B50007F48808849F2413188427CD1CF2002F0F1
:103B600015FC002002F006FCC12002F003FC30200E
:103B700002F000FCED2002F009FC642002F0FAFBE8
:103B8000032002F0F7FB122002F0F4FB812002F088
:103B9000F1FBE82002F0FAFB852002F0EBFB10209D
:103BA00002F0E8FB7A2002F0E5FBCB2002F0EEFB0E
:103BB000392002F0DFFB2C2002F0DCFB002002F0B9
:103BC000D9FB342002F0D6FB022002F0D3FBF72011
:103BD00002F0DCFB202002F0CDFBEA2002F0D6FB55
:103BE000002002F0C7FB002002F0C4FBC02002F05E
:103BF000CDFB1B2002F0BEFBC12002F0C7FB012061
:103C000002F0B8FBC52002F0C1FB302002F0B2FB8D
:103C1000302002F0AFFBC72002F0B8FBB72002F063
:103C2000A9FB362002F0B2FB482002F0A3FB3A20A9
:103C300002F0ACFB552002F09DFBB12002F0A6FB88
:103C4000002002F097FB1A2002F094FBB62002F04D
:103C50009DFB0A2000E0ABE002F08CFBA22002F00A
:103C600089FBF22002F092FB002002F083FB262069
:103C700002F08CFB012002F07DFBE02002F086FBCD
:103C80000F2002F077FB2A2002F074FB282002F0BC
:103C900071FB082002F06EFB0E2002F06BFB082087
:103CA00002F068FB542002F065FBA92002F062FBE1
:103CB000432002F05FFB0A2002F05CFB0F2002F0C1
:103CC00059FB002002F056FB002002F053FB0020BD
:103CD00002F050FB002002F04DFBE12002F056FB09
:103CE000002002F047FB152002F044FB172002F0F1
:103CF00041FB072002F03EFB112002F03BFB0620B7
:103D000002F038FB2B2002F035FB562002F032FB8C
:103D10003C2002F02FFB052002F02CFB102002F0CB
:103D200029FB0F2002F026FB3F2002F023FB3F205F
:103D300002F020FB0F2002F01DFB2B2002F026FBDF
:103D4000002002F017FB002002F014FB012011E01C
:103D5000342600203038024000040240E4250020D0
:103D6000040100A0204C43442049443A25780D0A20
:103D70000000000002F0FEFA3F2002F0FBFA2A20C9
:103D800002F004FB002002F0F5FA002002F0F2FA43
:103D9000002002F0EFFAEF2002F0ECFA112002F01E
:103DA000F5FA782005F042FA292002F0EFFAD8E57A
:103DB000FE48808845F21031884240F07C87ED2033
:103DC00002F0E4FA012002F0D5FAFE2002F0D2FA65
:103DD000EE2002F0DBFADE2002F0CCFA212002F025
:103DE000C9FAF12002F0D2FA012002F0C3FADF2072
:103DF00002F0CCFA102002F0BDFAC42002F0C6FA9C
:103E00008F2002F0B7FAC62002F0C0FA002002F0BC
:103E1000B1FAE22002F0AEFAE22002F0ABFAE220C0
:103E200002F0A8FABF2002F0B1FAAA2002F0A2FA2A
:103E3000B02002F0ABFA0D2002F09CFA002002F054
:103E400099FA0D2002F096FA002002F093FA112060
:103E500002F090FA002002F08DFA192002F08AFA9E
:103E6000002002F087FA212002F084FA002002F0FC
:103E700081FA2D2002F07EFA002002F07BFA3D202C
:103E800002F078FA002002F075FA5D2002F072FA72
:103E9000002002F06FFA5D2002F06CFA002002F0C0
:103EA00069FAB12002F072FA802002F063FA002071
:103EB00002F060FA8B2002F05DFA002002F05AFA5C
:103EC000962002F057FA002002F054FAB22002F0D5
:103ED0005DFA002002F04EFA002002F04BFA0220B8
:103EE00002F048FA002002F045FA032002F042FAFC
:103EF000002002F03FFAB32002F048FA002002F05E
:103F000039FA002002F036FA002002F033FA0020DD
:103F100002F030FA002002F02DFA002002F02AFA16
:103F2000002002F027FA002002F024FA002002F01C
:103F300021FA002002F01EFA002002F01BFA0020F5
:103F400002F018FA002002F015FA002002F012FA2E
:103F5000002002F00FFA002002F00CFA002002F01C
:103F600009FA002002F006FA002002F003FA00200D
:103F700002F000FA002002F0FDF9002002F0FAF948
:103F8000002002F0F7F9002002F0F4F9B42002F06A
:103F9000FDF98B2002F0EEF9002002F0EBF99620FB
:103FA00002F0E8F9002002F0E5F9A12002F0E2F9C0
:103FB000002002F0DFF9B52002F0E8F9022002F05B
:103FC000D9F9002002F0D6F9032002F0D3F900203D
:103FD00002F0D0F9042002F0CDF9002002F0CAF975
:103FE000B62002F0D3F9002002F0C4F9002002F05C
:103FF000C1F9B72002F0CAF9002002F0BBF9002095
:1040000002F0B8F93F2002F0B5F9002002F0B2F951
:104010005E2002F0AFF9002002F0ACF9642002F05B
:10402000A9F9002002F0A6F98C2002F0A3F90020E3
:1040300002F0A0F9AC2002F09DF9002002F09AF9FC
:10404000DC2002F097F9002002F094F9702002F0D1
:1040500091F9002002F08EF9902002F08BF90020F7
:1040600002F088F9EB2002F085F9002002F082F9D5
:10407000DC2002F07FF9002002F07CF9B82002F089
:1040800085F9002002F076F9002002F073F9002093
:1040900002F070F9002002F06DF9002002F06AF9D8
:1040A000002002F067F9002002F064F9002002F01D
:1040B00061F9BA2002F06AF9242002F05BF90020CD
:1040C00002F058F9002002F055F9002002F052F9F0
:1040D000C12002F05BF9202002F04CF9002002F030
:1040E00049F9542002F046F9002002F043F9FF207C
:1040F00002F040F9002002F03DF9C22002F046F93A
:104100000A2002F037F9002002F034F9042002F00E
:1041100031F9002002F02EF9C32002F037F93C20DB
:1041200002F028F9002002F025F93A2002F022F9E5
:10413000002002F01FF9392002F01CF9002002F0E3
:1041400019F9372002F016F9002002F013F93C208B
:1041500002F010F9002002F00DF9362002F00AF901
:10416000002002F007F9322002F004F9002002F0EA
:1041700001F92F2002F0FEF8002002F0FBF82C20BD
:1041800002F0F8F8002002F0F5F8292002F0F2F829
:10419000002002F0EFF8262002F0ECF8002002F0F8
:1041A000E9F8242002F0E6F8002001E0342600209F
:1041B00002F0E0F8242002F0DDF8002002F0DAF846
:1041C000232002F0D7F8002002F0D4F83C2002F0BF
:1041D000D1F8002002F0CEF8362002F0CBF8002013
:1041E00002F0C8F8322002F0C5F8002002F0C2F850
:1041F0002F2002F0BFF8002002F0BCF82C2002F0C3
:10420000B9F8002002F0B6F8292002F0B3F8002037
:1042100002F0B0F8262002F0ADF8002002F0AAF873
:10422000242002F0A7F8002002F0A4F8242002F0D5
:10423000A1F8002002F09EF8232002F09BF8002055
:1042400002F098F8C42002F0A1F8622002F092F87F
:10425000002002F08FF8052002F08CF8002002F018
:1042600089F8842002F086F8002002F083F8F0201C
:1042700002F080F8002002F07DF8182002F07AF8B1
:10428000002002F077F8A42002F074F8002002F079
:1042900071F8182002F06EF8002002F06BF8502040
:1042A00002F068F8002002F065F80C2002F062F8D5
:1042B000002002F05FF8172002F05CF8002002F006
:1042C00059F8952002F056F8002002F053F8F32038
:1042D00002F050F8002002F04DF8E62002F04AF813
:1042E000002002F047F8C52002F050F8322002F01A
:1042F00041F8002002F03EF8442002F03BF8002094
:1043000002F038F8652002F035F8002002F032F8AB
:10431000762002F02FF8002002F02CF8882002F01E
:1043200029F8002002F026F8C62002F02FF82020FD
:1043300002F020F8002002F01DF8172002F01AF811
:10434000002002F017F8012002F014F8002002F01B
:1043500011F8C72002F01AF8002002F00BF8002034
:1043600002F008F8002002F005F8002002F002F840
:10437000C82002F00BF8002001F0FCFF002001F043
:10438000F9FF002001F0F6FF002001F0F3FFC92043
:1043900001F0FCFF002001F0EDFF002001F0EAFF3A
:1043A000002001F0E7FF002001F0E4FF002001F011
:1043B000E1FF002001F0DEFF002001F0DBFF002024
:1043C00001F0D8FF002001F0D5FF002001F0D2FF5E
:1043D000002001F0CFFF002001F0CCFF002001F011
:1043E000C9FF002001F0C6FF002001F0C3FF00203C
:1043F00001F0C0FFE02001F0C9FF162001F0BAFF74
:10440000002001F0B7FF1C2001F0B4FF002001F0F4
:10441000B1FF212001F0AEFF002001F0ABFF3620FC
:1044200001F0A8FF002001F0A5FF462001F0A2FF47
:10443000002001F09FFF522001F09CFF002001F0BE
:1044400099FF642001F096FF002001F093FF7A208D
:1044500001F090FF002001F08DFF8B2001F08AFF1A
:10446000002001F087FF992001F084FF002001F077
:1044700081FFA82001F07EFF002001F07BFFB92022
:1044800001F078FF002001F075FFC42001F072FFF9
:10449000002001F06FFFCA2001F06CFF002001F046
:1044A00069FFD22001F066FF002001F063FFD920F0
:1044B00001F060FF002001F05DFFE02001F05AFFF5
:1044C000002001F057FFF32001F054FF002001F01D
:1044D00051FFE12001F05AFF162001F04BFF0020B0
:1044E00001F048FF1C2001F045FF002001F042FFD1
:1044F000222001F03FFF002001F03CFF362001F0B8
:1045000039FF002001F036FF452001F033FF002085
:1045100001F030FF522001F02DFF002001F02AFFB2
:10452000642001F027FF002001F024FF7A2001F031
:1045300021FF002001F01EFF8B2001F01BFF002057
:1045400001F018FF992001F015FF002001F012FF83
:10455000A82001F00FFF002001F00CFFB92001F0AE
:1045600009FF002001F006FFC42001F003FF002036
:1045700001F000FFCA2001F0FDFE002001F0FAFE6C
:10458000D22001F0F7FE002001F0F4FED82001F067
:10459000F1FE002001F0EEFEE02001F0EBFE002035
:1045A00001F0E8FEF32001F0E5FE002001F0E2FE5C
:1045B000E22001F0EBFE052001F0DCFE002001F01E
:1045C000D9FE0B2001F0D6FE002001F0D3FE1B2007
:1045D00001F0D0FE002001F0CDFE342001F0CAFE33
:1045E000002001F0C7FE442001F0C4FE002001F0CD
:1045F000C1FE4F2001F0BEFE002001F0BBFE612095
:1046000001F0B8FE002001F0B5FE792001F0B2FE05
:10461000002001F0AFFE882001F0ACFE002001F088
:10462000A9FE972001F0A6FE002001F0A3FEA6201F
:1046300001F0A0FE002001F09DFEB72001F09AFEDF
:10464000002001F097FEC22001F094FE002001F04E
:1046500091FEC72001F08EFE002001F08BFED120DC
:1046600001F088FE002001F085FED62001F082FED8
:10467000002001F07FFEDD2001F07CFE002001F033
:1046800079FEF32001F076FE002001F073FEE320B6
:1046900001F07CFE052001F06DFE002001F06AFEB5
:1046A0000A2001F067FE002001F064FE1C2001F0EA
:1046B00061FE002001F05EFE332001F05BFE002071
:1046C00001F058FE442001F055FE002001F052FE9A
:1046D000502001F04FFE002001F04CFE622001F05E
:1046E00049FE002001F046FE782001F043FE002044
:1046F00001F040FE882001F03DFE002001F03AFE6E
:10470000972001F037FE002001F034FEA62001F0D2
:1047100031FE002001F02EFEB72001F02BFE00201C
:1047200001F028FEC22001F025FE002001F022FE4B
:10473000C72001F01FFE002001F01CFED12001F077
:1047400019FE002001F016FED52001F013FE002016
:1047500001F010FEDD2001F00DFE002001F00AFE48
:10476000F32001F007FE002001F004FEE42001F038
:104770000DFE012001F0FEFD002001F0FBFD0120F7
:1047800001F0F8FD002001F0F5FD022001F0F2FD3E
:10479000002001F0EFFD2A2001F0ECFD002001F0E7
:1047A000E9FD3C2001F0E6FD002001F0E3FD4B2097
:1047B00001F0E0FD002001F0DDFD5D2001F0DAFDFB
:1047C000002001F0D7FD742001F0D4FD002001F09D
:1047D000D1FD842001F0CEFD002001F0CBFD93201F
:1047E00001F0C8FD002001F0C5FDA22001F0C2FDCE
:1047F000002001F0BFFDB32001F0BCFD002001F05E
:10480000B9FDBE2001F0B6FD002001F0B3FDC420CB
:1048100001F0B0FD002001F0ADFDCD2001F0AAFDBA
:10482000002001F0A7FDD32001F0A4FD002001F03D
:10483000A1FDDD2001F09EFD002001F09BFDF32095
:1048400001F098FD002001F095FDE52001F09EFDAE
:10485000002001F08FFD002001F08CFD002001F010
:1048600089FD002001F086FD022001F083FD00207B
:1048700001F080FD292001F07DFD002001F07AFD8E
:104880003C2001F077FD002001F074FD4B2001F089
:1048900071FD002001F06EFD5D2001F06BFD002038
:1048A00001F068FD742001F065FD002001F062FD5B
:1048B000842001F05FFD002001F05CFD932001F0F9
:1048C00059FD002001F056FDA22001F053FD00200B
:1048D00001F050FDB32001F04DFD002001F04AFD34
:1048E000BE2001F047FD002001F044FDC42001F08E
:1048F00041FD002001F03EFDCD2001F03BFD0020F8
:1049000001F038FDD32001F035FD002001F032FD2B
:10491000DC2001F02FFD002001F02CFDF32001F040
:1049200029FD002001F026FDE62001F02FFD1120D9
:1049300001F020FD002001F01DFD342001F01AFDE2
:10494000002001F017FD562001F014FD002001F0B9
:1049500011FD762001F00EFD002001F00BFD772007
:1049600001F008FD002001F005FD662001F002FDC8
:10497000002001F0FFFC882001F0FCFC002001F089
:10498000F9FC992001F0F6FC002001F0F3FCBB20BB
:1049900001F0F0FC002001F0EDFC992001F0EAFCB0
:1049A000002001F0E7FC662001F0E4FC002001F0AB
:1049B000E1FC552001F0DEFC002001F0DBFC55207D
:1049C00001F0D8FC002001F0D5FC452001F0D2FC1C
:1049D000002001F0CFFC432001F0CCFC002001F0CE
:1049E000C9FC442001F0C6FC002001F0C3FCE72014
:1049F00001F0CCFC322001F0BDFC002001F0BAFC3B
:104A0000552001F0B7FC002001F0B4FC762001F045
:104A1000B1FC002001F0AEFC662001F0ABFC0020F0
:104A200001F0A8FC672001F0A5FC002001F0A2FC29
:104A3000672001F09FFC002001F09CFC872001F022
:104A400099FC002001F096FC992001F093FC0020D5
:104A500001F090FCBB2001F08DFC002001F08AFCED
:104A6000992001F087FC002001F084FC772001F000
:104A700081FC002001F07EFC442001F07BFC002042
:104A800001F078FC562001F075FC002001F072FC6A
:104A9000232001F06FFC002001F06CFC332001F0BA
:104AA00069FC002001F066FC452001F063FC002059
:104AB00001F060FCE82001F069FC002001F05AFCE4
:104AC000002001F057FC992001F054FC002001F077
:104AD00051FC872001F04EFC002001F04BFC8820A7
:104AE00001F048FC002001F045FC772001F042FC79
:104AF000002001F03FFC662001F03CFC002001F0AA
:104B000039FC882001F036FC002001F033FCAA209B
:104B100001F030FC002001F02DFCBB2001F02AFC4C
:104B2000002001F027FC992001F024FC002001F076
:104B300021FC662001F01EFC002001F01BFC55202A
:104B400001F018FC002001F015FC552001F012FCCA
:104B5000002001F00FFC442001F00CFC002001F0CB
:104B600009FC442001F006FC002001F003FC552064
:104B700001F000FC002001F0FDFBE92001F006FC43
:104B8000AA2001F0F7FB002001F0F4FB002001F067
:104B9000F1FB002001F0EEFB002001F0F7FBAA2062
:104BA00001F0E8FBCF2001F0F1FB002001F0E2FB77
:104BB000002001F0DFFB002001F0DCFB002001F011
:104BC000D9FB002001F0D6FB002001F0D3FB002030
:104BD00001F0D0FB002001F0CDFB002001F0CAFB6A
:104BE000002001F0C7FB002001F0C4FB002001F011
:104BF000C1FB002001F0BEFB002001F0BBFB002048
:104C000001F0B8FB002001F0B5FB002001F0B2FB81
:104C1000F02001F0BBFB002001F0ACFB502001F0C4
:104C2000A9FB002001F0A6FB002001F0A3FB00205F
:104C300001F0A0FBF32001F0A9FB002001F09AFB9A
:104C4000F92001F0A3FB062001F094FB102001F0F5
:104C500091FB292001F08EFB002001F08BFB3A2014
:104C600001F094FB552001F085FB112001F08EFB33
:104C7000642004F0DBFA292001F088FB352001F0E4
:104C800085FB002001F076FB512001F07FFBFF2027
:104C900001F070FB532001F079FB2C2001F06AFB3E
:104CA000552001F073FB822001F064FB2C2001F001
:104CB0006DFB01F048B8FE48808845F210518842EB
:104CC0007ED155214FF4704001F076FBAA214FF2BE
:104CD000010001F071FB52214FF2020001F06CFB68
:104CE00008214FF2030001F067FB01214FF204009D
:104CF00001F062FB0D214FF4304001F05DFB0D210E
:104D00004BF2010001F058FB0D214BF2020001F0C3
:104D100053FB34214FF4364001F04EFB34214BF26B
:104D2000016001F049FB34214BF2026001F044FBC9
:104D30000D214FF4314001F03FFB0D214BF20110EA
:104D400001F03AFB0D214BF2021001F035FB34214A
:104D50004FF4374001F030FB34214BF2017001F089
:104D60002BFB34214BF2027001F026FB00214FF4A3
:104D7000324001F021FB00214BF2012001F01CFB2D
:104D800000214BF2022001F017FB24214FF43840A0
:104D900001F012FB24214BF6010001F00DFB242150
:104DA0004BF6020001F008FB01214FF43F4001F0F7
:104DB00003FB0F214FF4334001F0FEFA0F2100E016
:104DC000FEE34BF2013001F0F7FA0F214BF2023013
:104DD00001F0F2FA34214FF4394001F0EDFA3421B8
:104DE0004BF6011001F0E8FA34214BF6021001F005
:104DF000E3FA08214FF4354001F0DEFA08214BF2C6
:104E0000015001F0D9FA08214BF2025001F0D4FA16
:104E100003214FF4424001F0CFFA24214FF43A40ED
:104E200001F0CAFA24214BF6012001F0C5FA242131
:104E30004BF6022001F0C0FA00214FF43C4001F093
:104E4000BBFA78214BF6014001F0B6FA00214BF68F
:104E5000024001F0B1FA00214FF43D4001F0ACFAFC
:104E600078214BF6015001F0A7FA00214BF60250D1
:104E700001F0A2FA00214FF43E4001F09DFA6421B6
:104E80004BF6016001F098FA00214FF4514001F017
:104E900093FA33214DF2011001F08EFA00214DF208
:104EA000021001F089FA34214DF2031001F084FA66
:104EB00000214DF2041001F07FFA3A214DF2051065
:104EC00001F07AFA00214DF2061001F075FA4A213C
:104ED0004DF2071001F070FA00214DF2081001F0B8
:104EE0006BFA5C214DF2091001F066FA00214DF2D7
:104EF0000A1001F061FA81214DF20B1001F05CFA09
:104F000000214DF20C1001F057FAA6214DF20D10C0
:104F100001F052FA00214DF20E1001F04DFAE52198
:104F20004DF20F1001F048FA01214DF2101001F07E
:104F300043FA13214DF2111001F03EFA01214DF216
:104F4000121001F039FA54214DF2131001F034FA25
:104F500001214DF2141001F02FFA82214DF21510AB
:104F600001F02AFA01214DF2161001F025FACA21AA
:104F70004DF2171001F020FA02214DF2181001F045
:104F80001BFA00214DF2191001F016FA02214DF220
:104F90001A1001F011FA01214DF21B1001F00CFA68
:104FA00002214DF21C1001F007FA34214DF21D10C0
:104FB00001F002FA02214DF21E1001F0FDF9672105
:104FC0004DF21F1001F0F8F902214DF2201001F00E
:104FD000F3F984214DF2211001F0EEF902214DF296
:104FE000221001F0E9F9A4214DF2231001F0E4F9B7
:104FF00002214DF2241001F0DFF9B7214DF2251006
:1050000001F0DAF902214DF2261001F0D5F9CF2195
:105010004DF2271001F0D0F902214DF2281001F0D5
:10502000CBF9DE214DF2291001F0C6F902214DF233
:105030002A1001F0C1F9F2214DF22B1001F0BCF958
:1050400002214DF22C1001F0B7F9FE214DF22D1086
:1050500001F0B2F903214DF22E1001F0ADF910214B
:105060004DF22F1001F0A8F903214DF2301001F09C
:10507000A3F933214DF2311001F09EF903214DF2D5
:10508000321001F099F96D214DF2331001F094F9CD
:1050900000214FF4524001F08FF933214DF20120ED
:1050A00001F08AF900214DF2022001F085F901E0BA
:1050B0003426002034214DF2032001F07DF9002137
:1050C0004DF2042001F078F93A214DF2052001F06B
:1050D00073F900214DF2062001F06EF94A214DF2DC
:1050E000072001F069F900214DF2082001F064F970
:1050F0005C214DF2092001F05FF900214DF20A20F8
:1051000001F05AF981214DF20B2001F055F90021EF
:105110004DF20C2001F050F9A6214DF20D2001F0C6
:105120004BF900214DF20E2001F046F9E5214DF238
:105130000F2001F041F901214DF2102001F03CF95E
:1051400013214DF2112001F037F901214DF2122007
:1051500001F032F954214DF2132001F02DF9012113
:105160004DF2142001F028F982214DF2152001F0B2
:1051700023F901214DF2162001F01EF9CA214DF24A
:10518000172001F019F902214DF2182001F014F94D
:1051900000214DF2192001F00FF902214DF21A20E1
:1051A00001F00AF901214DF21B2001F005F902215D
:1051B0004DF21C2001F000F934214DF21D2001F0C8
:1051C000FBF802214DF21E2001F0F6F867214DF2A6
:1051D0001F2001F0F1F802214DF2202001F0ECF83F
:1051E00084214DF2212001F0E7F802214DF2222026
:1051F00001F0E2F8A4214DF2232001F0DDF80221B4
:105200004DF2242001F0D8F8B7214DF2252001F00D
:10521000D3F802214DF2262001F0CEF8CF214DF235
:10522000272001F0C9F802214DF2282001F0C4F82E
:10523000DE214DF2292001F0BFF802214DF22A2093
:1052400001F0BAF8F2214DF22B2001F0B5F802215D
:105250004DF22C2001F0B0F8FE214DF22D2001F08E
:10526000ABF803214DF22E2001F0A6F810214DF2EB
:105270002F2001F0A1F803214DF2302001F09CF81D
:1052800033214DF2312001F097F803214DF2322005
:1052900001F092F86D214DF2332001F08DF80021DC
:1052A0004FF4534001F088F833214DF2013001F002
:1052B00083F800214DF2023001F07EF834214DF2E6
:1052C000033001F079F800214DF2043001F074F858
:1052D0003A214DF2053001F06FF800214DF2063011
:1052E00001F06AF84A214DF2073001F065F800211B
:1052F0004DF2083001F060F85C214DF2093001F008
:105300005BF800214DF20A3001F056F881214DF290
:105310000B3001F051F800214DF20C3001F04CF847
:10532000A6214DF20D3001F047F800214DF20E306C
:1053300001F042F8E5214DF20F3001F03DF8012176
:105340004DF2103001F038F813214DF2113001F018
:1053500033F801214DF2123001F02EF854214DF2B4
:10536000133001F029F801214DF2143001F024F836
:1053700082214DF2153001F01FF801214DF2163057
:1053800001F01AF8CA214DF2173001F015F8022188
:105390004DF2183001F010F800214DF2193001F0F3
:1053A0000BF802214DF21A3001F006F801214DF2FE
:1053B0001B3001F001F802214DF21C3000F0FCFF1F
:1053C00034214DF21D3000F0F7FF02214DF21E3066
:1053D00000F0F2FF67214DF21F3000F0EDFF0221D7
:1053E0004DF2203000F0E8FF84214DF2213000F032
:1053F000E3FF02214DF2223000F0DEFFA4214DF246
:10540000233000F0D9FF02214DF2243000F0D4FF08
:10541000B7214DF2253000F0CFFF02214DF22630AA
:1054200000F0CAFFCF214DF2273000F0C5FF022166
:105430004DF2283000F0C0FFDE214DF2293000F09F
:10544000BBFF02214DF22A3000F0B6FFF2214DF2EF
:105450002B3000F0B1FF02214DF22C3000F0ACFFF8
:10546000FE214DF22D3000F0A7FF03214DF22E302A
:1054700000F0A2FF10214DF22F3000F09DFF03211C
:105480004DF2303000F098FF33214DF2313000F012
:1054900093FF03214DF2323000F08EFF6D214DF26B
:1054A000333000F089FF00214FF4544000F084FFB6
:1054B00033214DF2014000F07FFF00214DF2024008
:1054C00000F07AFF34214DF2034000F075FF002117
:1054D0004DF2044000F070FF3A214DF2054000F01B
:1054E0006BFF00214DF2064000F066FF4A214DF2AD
:1054F000074000F061FF00214DF2084000F05CFF22
:105500005C214DF2094000F057FF00214DF20A40A6
:1055100000F052FF81214DF20B4000F04DFF0021C1
:105520004DF20C4000F048FFA6214DF20D4000F076
:1055300043FF00214DF20E4000F03EFFE5214DF209
:105540000F4000F039FF01214DF2104000F034FF10
:1055500013214DF2114000F02FFF01214DF21240B6
:1055600000F02AFF54214DF2134000F025FF0121E5
:105570004DF2144000F020FF82214DF2154000F062
:105580001BFF01214DF2164000F016FFCA214DF21B
:10559000174000F011FF02214DF2184000F00CFFFF
:1055A00000214DF2194000F007FF02214DF21A4090
:1055B00000F002FF01214DF21B4000F0FDFE00E073
:1055C00003E302214DF21C4000F0F6FE34214DF2BF
:1055D0001D4000F0F1FE02214DF21E4000F0ECFEF5
:1055E00067214DF21F4000F0E7FE02214DF22040FE
:1055F00000F0E2FE84214DF2214000F0DDFE0221A8
:105600004DF2224000F0D8FEA4214DF2234000F0DC
:10561000D3FE02214DF2244000F0CEFEB7214DF220
:10562000254000F0C9FE02214DF2264000F0C4FEE4
:10563000CF214DF2274000F0BFFE02214DF228405D
:1056400000F0BAFEDE214DF2294000F0B5FE022145
:105650004DF22A4000F0B0FEF2214DF22B4000F056
:10566000ABFE02214DF22C4000F0A6FEFE214DF2D1
:105670002D4000F0A1FE03214DF22E4000F09CFED3
:1056800010214DF22F4000F097FE03214DF23040E3
:1056900000F092FE33214DF2314000F08DFE0321E7
:1056A0004DF2324000F088FE6D214DF2334000F0A3
:1056B00083FE00214FF4554000F07EFE33214DF271
:1056C000015000F079FE00214DF2025000F074FE0E
:1056D00034214DF2035000F06FFE00214DF20450D2
:1056E00000F06AFE3A214DF2055000F065FE0021FF
:1056F0004DF2065000F060FE4A214DF2075000F0D6
:105700005BFE00214DF2085000F056FE5C214DF288
:10571000095000F051FE00214DF20A5000F04CFEFD
:1057200081214DF20B5000F047FE00214DF20C504C
:1057300000F042FEA6214DF20D5000F03DFE00218A
:105740004DF20E5000F038FEE5214DF20F5000F002
:1057500033FE01214DF2105000F02EFE13214DF2C8
:10576000115000F029FE01214DF2125000F024FEEC
:1057700054214DF2135000F01FFE01214DF2145040
:1057800000F01AFE82214DF2155000F015FE0121A5
:105790004DF2165000F010FECA214DF2175000F0E5
:1057A0000BFE02214DF2185000F006FE00214DF2D2
:1057B000195000F001FE02214DF21A5000F0FCFDDC
:1057C00001214DF21B5000F0F7FD02214DF21C505B
:1057D00000F0F2FD34214DF21D5000F0EDFD0221EC
:1057E0004DF21E5000F0E8FD67214DF21F5000F011
:1057F000E3FD02214DF2205000F0DEFD84214DF248
:10580000215000F0D9FD02214DF2225000F0D4FDCC
:10581000A4214DF2235000F0CFFD02214DF224507F
:1058200000F0CAFDB7214DF2255000F0C5FD022160
:105830004DF2265000F0C0FDCF214DF2275000F070
:10584000BBFD02214DF2285000F0B6FDDE214DF2E5
:10585000295000F0B1FD02214DF22A5000F0ACFDBC
:10586000F2214DF22B5000F0A7FD02214DF22C50F9
:1058700000F0A2FDFE214DF22D5000F09DFD032110
:105880004DF22E5000F098FD10214DF22F5000F0F7
:1058900093FD03214DF2305000F08EFD33214DF287
:1058A000315000F089FD03214DF2325000F084FDAB
:1058B0006D214DF2335000F07FFD00214FF4564032
:1058C00000F07AFD33214DF2016000F075FD0021FA
:1058D0004DF2026000F070FD34214DF2036000F0E3
:1058E0006BFD00214DF2046000F066FD3A214DF29F
:1058F000056000F061FD00214DF2066000F05CFDE6
:105900004A214DF2076000F057FD00214DF208607A
:1059100000F052FD5C214DF2096000F04DFD0021C8
:105920004DF20A6000F048FD81214DF20B6000F05D
:1059300043FD00214DF20C6000F03EFDA6214DF22A
:105940000D6000F039FD00214DF20E6000F034FDD5
:10595000E5214DF20F6000F02FFD01214DF21060A6
:1059600000F02AFD13214DF2116000F025FD012108
:105970004DF2126000F020FD54214DF2136000F052
:105980001BFD01214DF2146000F016FD82214DF245
:10599000156000F011FD01214DF2166000F00CFDC4
:1059A000CA214DF2176000F007FD02214DF2186088
:1059B00000F002FD00214DF2196000F0FDFC022113
:1059C0004DF21A6000F0F8FC01214DF21B6000F06E
:1059D000F3FC02214DF21C6000F0EEFC34214DF28C
:1059E0001D6000F0E9FC02214DF21E6000F0E4FCB5
:1059F00067214DF21F6000F0DFFC02214DF22060B4
:105A000000F0DAFC84214DF2216000F0D5FC022187
:105A10004DF2226000F0D0FCA4214DF2236000F092
:105A2000CBFC02214DF2246000F0C6FCB7214DF200
:105A3000256000F0C1FC02214DF2266000F0BCFCA4
:105A4000CF214DF2276000F0B7FC02214DF2286013
:105A500000F0B2FCDE214DF2296000F0ADFC022125
:105A60004DF22A6000F0A8FCF2214DF22B6000F00C
:105A7000A3FC02214DF22C6000F09EFCFE214DF2B1
:105A80002D6000F099FC03214DF22E6000F094FC93
:105A900010214DF22F6000F08FFC03214DF2306099
:105AA00000F08AFC33214DF2316000F085FC0321C7
:105AB0004DF2326000F080FC6D214DF2336000F059
:105AC0007BFC55214FF4704000F076FCAA214FF288
:105AD000010000F071FC52214FF2020000F06CFC5A
